:0400000002001932AF
:03000B000212FEE0
:03001300021304D1
:0300720002001673
:0300160002138E44
:20007500AE82AF83EE4F600F7D64ED14FCFD70FA1EBEFF011F80ED22002212008DD2801269
:20009500008DC280221080028000D281D28012008DC28112008DC280221080028000C28169
:2000B50012008DD28012008DD28122AF827E00EF339281C007C00612008FD006D0078F05D3
:2000D500ED2DFF0EBE080040E6D28112008DD28012008DA281C28012008D227F007E00C032
:2000F50007C00612008DD28012008DD006D007A281E433FD8F04EC2C4DFFC2800EBE08009D
:2001150040DD8F8222C28112008D12008FD28122D28112008D12008FD28022AF82BF011B6F
:20013500752FA0752E8B752DA0752CA1752BFF752AFF7529FF7528FF0203A2BF021B752F17
:20015500FF752E92752D84752CC8752BF9752AC87529FF7528FF0203A2BF031B752F92755F
:200175002E84752DC7752CA0752B92752AA07529FF7528FF0203A2BF041B752FFF752EFF9A
:20019500752DCE752CA0752B83752AC17529FF7528FF0203A2BF051B752F8A752EA0752D44
:2001B500CC752CD8752BF9752A927529FF7528FF0203A2BF061B752FE1752EC1752DCC758F
:2001D5002CD8752BA0752A877529FF7528FF0203A2BF071B752F92752EA0752D83752C8719
:2001F500752BC1752AFF7529FF7528FF0203A2BF081B752FFF752EFF752D83752C84752BFA
:2002150084752A8C7529FF7528FF0203A2BF091B752FFF752EFF752DFF752CFF752BFF75BD
:200235002AFF7529C07528C80203A2BF0A1B752FFF752EFF752DFF752CFF752BFF752AC0AE
:2002550075298E75288E0203A2BF0B1B752FFF752EF9752DCC752CD8752B92752A91752980
:20027500A07528FF0203A2BF0C1B752FFF752EFF752D92752CC1752B83752AC175298B75A4
:2002950028FF0203A2BF0D1B752FFF752EFF752DA1752CC1752B8B752AC17529CE7528FF17
:2002B5000203A2BF0E1B752FFF752EFF752DA0752C92752B8B752AA07529CE7528FF020369
:2002D500A2BF0F1B752FCC752ED8752DA0752C90752B8B752ACE7529F97528830203A2BF6B
:2002F500101B752FFF752EFF752DF9752C92752B91752AA07529FF7528FF0203A2BF111B70
:20031500752F92752E87752DA0752CC8752B83752A917529FF7528FF0203A2BF121A752FFB
:20033500FF752EF9752D98752CC0752BCC752AD87529A075288B8055BF141A752F87752E99
:20035500A0752DCC752CD8752B83752AA075298B7528FF8038BF151A752F8A752EC1752D00
:20037500CE752CA0752BC8752A907529FF7528FF801BBFAA18752FFF752EFF752DFF752CE6
:20039500FF752BFF752AFF7529FF7528FF22AF82C2917E00BF80004004D2908002C290EF07
:2003B50023FFD292C2920EBE080040E822AF82C2957E00BF80004004D2948002C294EF2357
:2003D500FFD293C2930EBE080040E822AF82C2B77E00BF80004004D2B68002C2B6EF23FFF3
:2003F500D2B5C2B50EBE080040E82212009A7582D01200C07582001200C07582001200C0F5
:200415008511821200C08512821200C08513821200C08514821200C08515821200C085178F
:20043500821200C07582101200C01200AE90002812007512009A7582D01200C075820E121F
:2004550000C07582001200C01200AE9000281200752212009A7582D01200C075820012008F
:20047500C012009A7582D11200C01200F0E582F51012011A1200F0E582F51112011A120018
:20049500F0E582F51212011A1200F0E582F51312011A1200F0E582F51412011A1200F0E598
:2004B50082F51512011A1200F0E582F5171200AE22AE82AF838F05C006C00512009A7582F3
:2004D500A01200C0D0058D821200C0D0068E821200C012009A7582A11200C01200F0AF82DE
:2004F500C0071201251200AE900028120075D0078F8222AF82AE4FAD4EC007C006C0051252
:20051500009A7582A01200C0D005D0068E82C0051200C0D0058D821200C0D0078F821200C1
:20053500C01200AE90002812007522E582FFC4540F75F00AA4FE740F5F2EF58222AF827ECF
:200555000075580A8E598F828E83C007C0061215BFAC82D006D007ECC454F0FC75580A751C
:2005750059008F828E83C004121589AE82D004EE2CF58222901624E493FEA3E493FF8514CF
:2005950082C007C006120540AD82D006D0077C00ED2EFDEC3FFC8D828C83C005C00412048C
:2005B500C6E582D004D005F51874282DFDE43CFC8D828C83C005C0041204C6E582D004D0D3
:2005D50005F51974282DFDE43CFC8D828C83C005C0041204C6E582D004D005F51A74282DA6
:2005F500FDE43CFC8D828C83C005C0041204C6E582D004D005F51B74282DFDE43CFC8D8239
:200615008C83C005C0041204C6E582D004D005F51C74282DFDE43CFC8D828C83C005C004A7
:200635001204C6E582D004D005F51D74282DFDE43CFC8D828C83C005C0041204C6E582D00B
:2006550004D005F51E74282DFDE43CFC8D828C83C005C0041204C6E582D004D005F51F749C
:20067500282DFDE43CFC8D828C83C005C0041204C6E582D004D005F52074282DFDE43CFC6D
:200695008D828C83C005C0041204C6E582D004D005F52174282DFDE43CFC8D828C83C005D7
:2006B500C0041204C6E582D004D005F52274282DF582E43CF5831204C6E582F52390177212
:2006D5001204C68582489017731204C6858249227F00EF2424F987067D00EE2552F552ED20
:2006F5003553F5530FBF240040E8E550B55208E551B553030207F0855250855351854382E3
:200715001203E18542821203E18541821203E18540821203E18547821203E185468212036E
:20073500E18545821203E18544821203E1853B821203E1853A821203E18539821203E18516
:2007550038821203E1853F821203E1853E821203E1853D821203E1853C821203E1853382B0
:200775001203E18532821203E18531821203E18530821203E18537821203E185368212035E
:20079500E18535821203E18534821203E1852F821203C2852E821203C2852D821203C28557
:2007B5002C821203C2852B821203C2852A821203C28529821203C28528821203C285278253
:2007D5001203A38526821203A38525821203A38524821203A3D291D295D2B7227F04901602
:2007F50010E493F582C0071203C2D0070FBF0C0040EC7F0C90161BE493F582C0071203E174
:20081500D0070FBF240040ECD295D2B722901605E493FF8F24901605E493FF8F2590160568
:20083500E493FF8F26901605E493FF8F277F04EF2424F9901610E493FEF70FBF0C0040EFC3
:200855007F0CEF2424F990161BE493F70FBF240040F01206E522AE1153060F7F00EE24FBA5
:20087500F582EF3415F583E493FF8F24E511C4540F9015FB93FF8F25AE1253060F7F00EE7B
:2008950024FBF582EF3415F583E493FF8F26E512C4540F9015FB93FF8F27E514C4540F901C
:2008B500160693FF8F2FAE1453060F7F00EE2406F582EF3416F583E493FF8F2EE515C45489
:2008D5000F90160693FF8F2DAE1553060F7F00EE2406F582EF3416F583E493FF8F2C901639
:2008F50008E493FF8F2B901606E493FF8F2AE517C4540F90160693FF8F29AE1753060F7F0B
:2009150000EE2406F582EF3416F583E493FF8F28AE1953060F7F00EE2411F582EF3416F5DF
:2009350083E493FF8F40E519C4540F90161193FF8F41AE1853060F7F00EE2411F582EF3432
:2009550016F583E493FF8F42E518C4540F90161193FF8F43AE1B53060F7F00EE2411F58224
:20097500EF3416F583E493FF8F44E51BC4540F90161193FF8F45AE1A53060F7F00EE241152
:20099500F582EF3416F583E493FF8F46E51AC4540F90161193FF8F47AE1D53060F7F00EEEA
:2009B5002411F582EF3416F583E493FF8F38E51DC4540F90161193FF8F39AE1C53060F7F9D
:2009D50000EE2411F582EF3416F583E493FF8F3AE51CC4540F90161193FF8F3BAE1F530617
:2009F5000F7F00EE2411F582EF3416F583E493FF8F3CE51FC4540F90161193FF8F3DAE1EBC
:200A150053060F7F00EE2411F582EF3416F583E493FF8F3EE51EC4540F90161193FF8F3F0B
:200A3500AE2153060F7F00EE2411F582EF3416F583E493FF8F30E521C4540F90161193FFF5
:200A55008F31AE2053060F7F00EE2411F582EF3416F583E493FF8F32E520C4540F901611A7
:200A750093FF8F33AE2353060F7F00EE2411F582EF3416F583E493FF8F34E523C4540F9012
:200A9500161193FF8F35AE2253060F7F00EE2411F582EF3416F583E493FF8F36E522C45468
:200AB5000F90161193FF8F3722C2A5900064120075D2A520A10AD2A190009612007580F32A
:200AD50022C2A5900064120075D2A520A20AD2A290009612007580F322C2A5900064120097
:200AF50075D2A520A30AD2A390009612007580F322AF82E4BF030104FEFD8E0420A1030242
:200B15000CA630A203020BA6EF2410F98782C007C006C005C004C001120540AB82D001D065
:200B350004D005D006D007A7030BA703C3E5559B5002A7548782C007C006C005C004C001F6
:200B5500120552E582D001D004D005D006D007F7EE6018851382C007C006C005C0041201E9
:200B750030D004D005D006D0078013C007C006C005C00412086BD004D005D006D007C0078F
:200B9500C006C005C004120AD6D004D005D006D00730A303020C3AEF2410F98782C007C0DF
:200BB50006C005C004C001120540AB82D001D004D005D006D007A7031BA7038702C3EB95EA
:200BD500544003BAFF02A7558782C007C006C005C004C001120552E582D001D004D005D0B8
:200BF50006D007F7ED6018851382C007C006C005C004120130D004D005D006D0078013C08B
:200C150007C006C005C00412086BD004D005D006D007C007C006C005C004120AEED004D0CA
:200C350005D006D007EF2410F9870330820277AAC007C006C005C004C003C00112086BD083
:200C550001D003D004D005D006D007EC602330820277AA851382C007C006C005C004C0031E
:200C7500C001120130D001D003D004D005D006D007C007C006C005C004C003C0011206E5CA
:200C9500D001D003D004D005D006D007A703020B11120ABE22AF827E0020A103020D80205F
:200CB500A23CEF2410F98782C007C001120540AD82D001D007A7050DA705C3E5579D500213
:200CD500A7568782C007C001120552E582D001F712086B851382120130120AD6D00720A36B
:200CF50041EF2410F98782C007C001120540AD82D001D007A7051DA7058704C3ED955640E8
:200D150003BCFF02A7578782C007C001120552E582D001F712086B851382120130120AEEEB
:200D3500D007EF2410F98706C007C006C00112086B851382120130D001D006D007308217A7
:200D550077AAC007C006C00112086B7582AA120130D001D006D007C007C006C0011206E5DD
:200D7500D001D006D007A706020CAEC006120ABED0068E822220A15A120ABE755400755547
:200D950017758202120B0675540075553B758201120B0675540175551F758204120B0675DC
:200DB500540175550C758205120B06755400755563758207120B0675540175550775820328
:200DD500120B06120400120589900258120075120F6630A203020F65120AD67512AA751337
:200DF500089017711204C6E582F511755600755763758201120CAA754E71754F171205088D
:200E150075130C9017741204C6E582F511755600755763758201120CAA754E74754F1712E7
:200E3500050875130D9017751204C6E582F511755600755763758201120CAA754E75754FE0
:200E55001712050875130E9017761204C6E582F511755600755763758201120CAA754E7658
:200E7500754F1712050875130F9017771204C6E582F511755600755763758201120CAA7536
:200E95004E77754F171205087513109017781204C6E582F511755600755763758201120C6E
:200EB500AA754E78754F171205087513119017791204C6E582F5117556007557637582014A
:200ED500120CAA754E79754F171205087511007513099017721204C6E582F5127556007545
:200EF5005717758202120CAA754E72754F1712050875130A9017731204C6E582F5127556BE
:200F150000755717758202120CAA754E73754F171205087512AA75130690177A1204C6E547
:200F350082F511755600755763758201120CAA754E7A754F171205081204679000281200DC
:200F55007512058912086B900258120075120F6622C2A5900190120075D2A590019012000F
:200F750075C2A5900190120075D2A5900190120075C2A5900190120075D2A5227EF07F0024
:200F9500E512FDB51867E519B51162C2AF12086B75130B7C0CBC1C004005EC24E0500BEC89
:200FB5002424F990161BE493FBF70CBC240040E57C0020821ABC0A005004C2A58002D2A5EE
:200FD500851382C0041201301206E5D00480E3C0041206E5D00430820BD2A5C0041207F110
:200FF500D00480F20CBC3C0040C80212FBEDB51A33E51BB5112EC2AFC007C00612086B75A0
:20101500130C9017741204C6AC82D006D0077B0CEB2424F990161BE493FAF70BBB200040C8
:20103500EF021139EDB51C3DE51DB51138C2AFC007C00612086B75130D9017751204C6ACA9
:2010550082D006D0077B0CBB14004005EB24E8500BEB2424F990161BE493FAF70BBB240020
:2010750040E5021139EDB51E3DE51FB51138C2AFC007C00612086B75130E9017761204C6D9
:20109500AC82D006D0077B0CBB18004005EB24E4500BEB2424F990161BE493FAF70BBB2434
:2010B5000040E5021139EDB52032E521B5112DC2AFC007C00612086B75130F90177712046F
:2010D500C6AC82D006D0077B10EB2424F990161BE493FAF70BBB240040EF8048EDB52202D3
:2010F50080030212FBE523B5110280030212FBC2AFC007C00612086B751310901778120497
:20111500C6AC82D006D0077D0CBD10004005ED24EC500BED2424F990161BE493FBF70DBD04
:20113500240040E5901771C007C006C0041204C6120540AD82D004D006D0072082FDEE4F29
:2011550060561EBEFF011FED6003C2A51D20821B851382C007C006C005C0041201301206AD
:20117500E5D004D005D006D00780E2C007C006C005C0041206E5D004D005D006D0073082A2
:20119500BDD2A5C007C006C005C0041207F1D004D005D006D00780E6740DB51316C00412F5
:2011B5000467D0047406B5130A90177A1204C6AC828003751312C2A59001F4C00412007510
:2011D500D004D2A58C82120540AF82EF60741F7E3B8E82C007C006120552E582D006D00764
:2011F500F5118F82C007C006120552E582F51212086BD006D0077D0CED2424F990161BE4D1
:2012150093FCF70DBD240040EF30820DC007C0061207F1D006D00780F0208213851382C014
:2012350007C0061201301206E5D006D00780EAC007C0061206E5D006D0071EBE3C00409155
:201255008089C2A5900320120075D2A5900320120075C2A5900320120075D2A59003201241
:201275000075C2A5900BB8120075D2A59017791204C6120540AF828F5875590090003C1215
:2012950014F6AE82AF837D00ED2424F9901605E493F70DBD040040F07D04ED2424F99016B6
:2012B50010E493F70DBD0C0040F07D0CED2424F990161BE493F70DBD240040F0C007C00604
:2012D5001206E5D006D007EE4F60182082FD3082FD1EBEFF011FC007C006120822D006D0E2
:2012F5000780E4120589D2AF22C28C754D0032C0E0C0D0C28CC2AF054D7402B54D1274F6B4
:20131500258C5006E58C24F45003754D00754C00E54D24FD502874F6254D4022E58C24FABA
:20133500500874F8258C4002054C74FC258C5006E58C24F85003754D00E54C23F54CE54DB0
:2013550024F65026754D007408B54C0280057448B54C02C2A27406B54C02C2A17488B54C22
:2013750002800574C8B54C02C2A3758C00758A00D28CD2AFD0D0D0E0327F00C00712086B01
:201395001206E5120F66758800D28C758929D2BAD28AD2AAD2A9D2AF12009A7582D012004D
:2013B500C075820E1200C07582001200C01200AE900028120075120467120589D007C007FE
:2013D500120467120F91D007E5127011E511700D9001F4C007120075120589D0077E00201F
:2013F5008210C007C0061206E5120D8AD006D00780EDC007C00612086BD006D007C3E5484A
:2014150095495027E512FD7008C3E5489D40027F00C3ED95484007E5499D40027F01C3ED97
:2014350095494007ED24DC40027F00C3E54995485027E512FD7008C3E5499D40027F01C300
:20145500ED95494007E5489D40027F00C3ED95484007ED24DC40027F01E549B548027F01AA
:20147500EF24FF9295EF7046901605E493FD8D24901605E493FD8D25901605E493FD8D2606
:20149500901605E493FD8D277E04EE2424F9901610E493FDF70EBE0C0040EF7E0CEE2424CB
:2014B500F990161BE493FDF70EBE240040EFBE0500500E851382C007C006120130D006D022
:2014D50007308210C007C0061206E5120D8AD006D00780ED0EBE0A0050030213F40213D3C7
:0114F50022D4
:2015FB00C0F9A4B0999282F88090FFC0F9A4B0999282F88090FFC0F9A4B0999282F880908C
:19161B00FF0000F401E803DC05D007C409B80BAC0DA00F941188137C1556
:06004800E478FFF6D8FD8C
:200026007900E94400601B7A00901634780175A000E493F2A308B8000205A0D9F4DAF27536
:02004600A0FF19
:1D14F600E5828558F0A4C582C0F08559F0A4D0F025F0C5838558F0A42583F58322C8
:20151300E558455960467A01E55825E0F558E559334012F559E5829558E583955940030A25
:2015330080E6C3E55913F559E55813F558C3E5829558F5F0E58395594005F58385F082C36A
:0D155300E55913F559E55813F558DAE12272
:20004E007800E84400600A790175A000E4F309D8FC7800E84400600C7900900001E4F0A3B0
:04006E00D8FCD9FAE7
:201560007A10E4FBFCE58225E0F582E58333F583EB33FBEC33FCEB9558F5F0EC95594006FF
:09158000FCABF0438201DADD222C
:0D0019007581591215F7E58260030200168B
:20158900C2D5E58330E70DD2D5E4C39582F582E49583F583E55930E70BE4C39558F558E4AA
:1615A9009559F55912151330D50BE4C39582F582E49583F58322DB
:2015BF00C2D5E58330E70DD2D5E4C39582F582E49583F583E55930E70DB2D5E4C39558F527
:1815DF0058E49559F55912156030D50BE4C39582F582E49583F583221A
:0415F70075820022D7
:00000001FF
