:0400000002001932AF
:03000B000212518D
:030013000212577F
:0300720002001673
:030016000212E1F2
:20007500AE82AF83EE4F60107D648D041CECFD70F91EBEFF011F80EC22002212008ED280DF
:2000950012008EC280221080028000D281D28012008EC28112008EC280221080028000C2D5
:2000B5008112008ED28012008ED28122AF827E00EF339281C007C006120090D006D007EFF4
:2000D5002FFF0EBE080040E8D28112008ED28012008EA281C28012008E227F007E00C00711
:2000F500C00612008ED28012008ED006D007A2819200EF2FFDA200E433FC4DFFC2800EBE07
:20011500080040DA8F8222C28112008E120090D28122D28112008E120090D28022AF82BF82
:20013500011B7540A0753F8B753EA0753DA1753CFF753BFF753AFF7539FF0203A4BF021B15
:200155007540FF753F92753E84753DC8753CF9753BC8753AFF7539FF0203A4BF031B754027
:2001750092753F84753EC7753DA0753C92753BA0753AFF7539FF0203A4BF041B7540FF7536
:200195003FFF753ECE753DA0753C83753BC1753AFF7539FF0203A4BF051B75408A753FA01E
:2001B500753ECC753DD8753CF9753B92753AFF7539FF0203A4BF061B7540E1753FC1753E93
:2001D500CC753DD8753CA0753B87753AFF7539FF0203A4BF071B754092753FA0753E837501
:2001F5003D87753CC1753BFF753AFF7539FF0203A4BF081B7540FF753FFF753E83753D844C
:20021500753C84753B8C753AFF7539FF0203A4BF091B7540FF753FFF753EFF753DFF753CF6
:20023500FF753BFF753AC07539C80203A4BF0A1B7540FF753FFF753EFF753DFF753CFF759A
:200255003BC0753A8E75398E0203A4BF0B1B7540FF753FF9753ECC753DD8753C92753B9199
:20027500753AA07539FF0203A4BF0C1B7540FF753FFF753E92753DC1753C83753BC1753A6B
:200295008B7539FF0203A4BF0D1B7540FF753FFF753EA1753DC1753C8B753BC1753ACE75B4
:2002B50039FF0203A4BF0E1B7540FF753FFF753EA0753D92753C8B753BA0753ACE7539FFAC
:2002D5000203A4BF0F1B7540CC753FD8753EA0753D90753C8B753BCE753AF975398302033D
:2002F500A4BF101B7540FF753FFF753EF9753D92753C91753BA0753AFF7539FF0203A4BFAF
:20031500111B754092753F87753EA0753DC8753C83753B91753AFF7539FF0203A4BF121AE9
:200335007540FF753FF9753E98753DC0753CCC753BD8753AA075398B8055BF141A754087FF
:20035500753FA0753ECC753DD8753C83753BA0753A8B7539FF8038BF151A75408A753FC166
:20037500753ECE753DA0753CC8753B90753AFF7539FF801BBFAA187540FF753FFF753EFF4C
:20039500753DFF753CFF753BFF753AFF7539FF22AF82C2917E00BF80004004D2908002C290
:2003B50090EF23FFD292C2920EBE080040E822AF82C2957E00BF80004004D2948002C294EA
:2003D500EF23FFD293C2930EBE080040E822AF82C2B77E00BF80004004D2B68002C2B6EF03
:2003F50023FFD2B5C2B50EBE080040E82212009B7582D01200C17582001200C17582001290
:2004150000C18522821200C18523821200C18524821200C18525821200C18526821200C110
:200435008528821200C17582101200C11200AF90002812007512009B7582D01200C175828D
:200455000E1200C17582001200C11200AF9000281200752212009B7582D01200C17582007C
:200475001200C112009B7582D11200C11200EFE582F52112011C1200EFE582F52212011CF1
:200495001200EFE582F52312011C1200EFE582F52412011C1200EFE582F52512011C120025
:2004B500EFE582F52612011C1200EFE582F5281200AF22AE82AD83C006C00512009B758290
:2004D500A01200C1D0058D821200C1D0068E821200C112009B7582A11200C11200EFAF82DA
:2004F500C0071201271200AF900028120075D0078F8222AF82AE60AC5FC007C006C004122F
:20051500009B7582A01200C1D004D0068E82C0041200C1D0048C821200C1D0078F821200C1
:20053500C11200AF90002812007522E582FFC4540F75F00AA4FE740F5F2EF58222AF8275D6
:20055500F00AEF84C454F0FE75F00AEF84E5F02EF582227E007F00E526FD24ED5003020525
:20057500F0ED240A83F582ED241783F583E473F0AAB0B6BCC2C8CED4DAF0F0F0F0F0F0E0A5
:20059500E6EC050505050505050505050505050505050505057E007F0080407EF47F0180E6
:2005B5003A7EE87F0380347EDC7F05802E7ED07F0780287EC47F0980227EB87F0B801C7E02
:2005D500AC7F0D80167EA07F0F80107E947F11800A7E887F1380047E7C7F15852582C00733
:2005F500C006120540AD82D006D0077C00ED2EFEEC3FFF8E828F83C007C0061204C8E5823A
:20061500D006D007F52974282EFEE43FFF8E828F83C007C0061204C8E582D006D007F52A50
:2006350074282EFEE43FFF8E828F83C007C0061204C8E582D006D007F52B74282EFEE43F0F
:20065500FF8E828F83C007C0061204C8E582D006D007F52C74282EFEE43FFF8E828F83C0F8
:2006750007C0061204C8E582D006D007F52D74282EFEE43FFF8E828F83C007C0061204C80D
:20069500E582D006D007F52E74282EFEE43FFF8E828F83C007C0061204C8E582D006D00783
:2006B500F52F74282EFEE43FFF8E828F83C007C0061204C8E582D006D007F53074282EFE89
:2006D500E43FFF8E828F83C007C0061204C8E582D006D007F53174282EFEE43FFF8E828F93
:2006F50083C007C0061204C8E582D006D007F53274282EFEE43FFF8E828F83C007C0061211
:2007150004C8E582D006D007F53374282EFEE43FFF8E828F831204C8E582F5349017721217
:2007350004C88582599017731204C885825A227F00EF2435F987067D00EE2563F563ED3543
:2007550064F5640FBF240040E8E561B56308E562B5640302084F856361856462855482128A
:2007750003E38553821203E38552821203E38551821203E38558821203E38557821203E3DE
:200795008556821203E38555821203E3854C821203E3854B821203E3854A821203E38549EF
:2007B500821203E38550821203E3854F821203E3854E821203E3854D821203E38544821217
:2007D50003E38543821203E38542821203E38541821203E38548821203E38547821203E3CE
:2007F5008546821203E38545821203E38540821203C4853F821203C4853E821203C4853D3C
:20081500821203C4853C821203C4853B821203C4853A821203C48539821203C485388212AD
:2008350003A58537821203A58536821203A58535821203A5D291D295D2B7227F0490144535
:20085500E493F582C0071203C4D0070FBF0C0040EC7F0C901450E493F582C0071203E3D01C
:20087500070FBF240040ECD295D2B72290143AE493FF8F3590143AE493FF8F3690143AE439
:2008950093FF8F3790143AE493FF8F387F04EF2435F9901445E493FEF70FBF0C0040EF7F2F
:2008B5000CEF2435F9901450E493FEF70FBF240040EF12074422740F552290143093FF8FE7
:2008D50035E522C4540F90143093FF8F36740F552390143093FF8F37E523C4540F9014304B
:2008F50093FF8F38E525C4540F90143B93FF8F40740F552590143B93FF8F3FE526C4540FAB
:2009150090143B93FF8F3E740F552690143B93FF8F3D90143DE493FF8F3C90143BE493FFD2
:200935008F3BE528C4540F90143B93FF8F3A740F552890143B93FF8F39740F552A90144645
:2009550093FF8F51E52AC4540F90144693FF8F52740F552990144693FF8F53E529C4540FE9
:2009750090144693FF8F54740F552C90144693FF8F55E52CC4540F90144693FF8F56740F83
:20099500552B90144693FF8F57E52BC4540F90144693FF8F58740F552E90144693FF8F496C
:2009B500E52EC4540F90144693FF8F4A740F552D90144693FF8F4BE52DC4540F9014469382
:2009D500FF8F4C740F553090144693FF8F4DE530C4540F90144693FF8F4E740F552F901488
:2009F5004693FF8F4FE52FC4540F90144693FF8F50740F553290144693FF8F41E532C45411
:200A15000F90144693FF8F42740F553190144693FF8F43E531C4540F90144693FF8F44740E
:200A35000F553490144693FF8F45E534C4540F90144693FF8F46740F553390144693FF8F12
:200A550047E533C4540F90144693FF8F4822C2A5900064120075D2A520A10AD2A1900096C9
:200A750012007580F322C2A5900064120075D2A520A20AD2A290009612007580F322C2A503
:200A9500900064120075D2A520A30AD2A390009612007580F322AF82E4BF030104FE20A130
:200AB50003020BDA20A261EF2421F98782C007C006C001120540AD82D001D006D007A705E0
:200AD5000DA705C3E5669D5002A7658782C007C006C001120552E582D001D006D007F7EEB5
:200AF5006010852482C007C006120132D006D007800BC007C0061208CBD006D007C007C096
:200B150006120A7BD006D00720A366EF2421F98782C007C006C001120540AD82D001D0069C
:200B3500D007A7051DA7058704C3ED95654003BCFF02A7668782C007C006C001120552E56D
:200B550082D001D006D007F7EE6010852482C007C006120132D006D007800BC007C0061257
:200B750008CBD006D007C007C006120A93D006D007EF2421F9870530820277AAC007C006DC
:200B9500C005C0011208CBD001D005D006D007EE601B30820277AA852482C007C006C005C7
:200BB500C001120132D001D005D006D007C007C006C005C001120744D001D005D006D00704
:200BD500A705020AB3120A6322AF827E0020A103020CB420A23CEF2421F98782C007C00103
:200BF500120540AD82D001D007A7050DA705C3E5689D5002A7678782C007C001120552E561
:200C150082D001F71208CB852482120132120A7BD00720A341EF2421F98782C007C00112DE
:200C35000540AD82D001D007A7051DA7058704C3ED95674003BCFF02A7688782C007C00137
:200C5500120552E582D001F71208CB852482120132120A93D007EF2421F98706C007C006C5
:200C7500C0011208CB852482120132D001D006D00730821777AAC007C006C0011208CB7539
:200C950082AA120132D001D006D007C007C006C001120744D001D006D007A706020BE2C0CB
:200CB50006120A63D0068E822220A15A120A63756500756617758202120AAB7565007566B7
:200CD5003B758201120AAB75650175661F758204120AAB75650175660C758205120AAB7574
:200CF5006500756663758207120AAB756501756607758203120AAB12040212056890025878
:200D1500120075120EC230A203020EC1120A7B7523AA7524089017711204C8E582F522754C
:200D35006700756863758201120BDEAF82755F717560178F8212050875240C90177412049C
:200D5500C8E582F522756700756863758201120BDEAF82755F747560178F821205087524FB
:200D75000D9017751204C8E582F522756700756863758201120BDEAF82755F757560178FD5
:200D95008212050875240E9017761204C8E582F522756700756863758201120BDEAF8275C8
:200DB5005F767560178F8212050875240F9017771204C8E582F522756700756863758201F7
:200DD500120BDEAF82755F777560178F821205087524109017781204C8E582F5227567006B
:200DF500756863758201120BDEAF82755F787560178F821205087524119017791204C8E585
:200E150082F522756700756863758201120BDEAF82755F797560178F82120508752200756F
:200E350024099017721204C8E582F523756700756817758202120BDEAF82755F72756017D3
:200E55008F8212050875240A9017731204C8E582F523756700756817758202120BDEAF823E
:200E7500755F737560178F821205087523AA75240690177A1204C8E582F5227567007568E3
:200E950063758201120BDEAF82755F7A7560178F821205081204699000281200751205680F
:200EB5001208CB900258120075120EC222C2A5900190120075D2A5900190120075C2A5909E
:200ED5000190120075D2A5900190120075C2A5900190120075D2A5227EF07F00E523FDB577
:200EF5002967E52AB52262C2AF1208CB75240B7C0CBC1C004005EC24E0500BEC2435F9904D
:200F15001450E493FBF70CBC240040E57C0020821ABC0A005004C2A58002D2A5852482C041
:200F350004120132120744D00480E3C004120744D00430820BD2A5C004120850D00480F222
:200F55000CBC3C0040C802124EEDB52B33E52CB5222EC2AFC007C0061208CB75240C9017C9
:200F7500741204C8AB82D006D0077C0CEC2435F9901450E493FAF70CBC200040EF02109550
:200F9500EDB52D3DE52EB52238C2AFC007C0061208CB75240D9017751204C8AB82D006D0B8
:200FB500077C0CBC14004005EC24E8500BEC2435F9901450E493FAF70CBC240040E5021068
:200FD50095EDB52F3DE530B52238C2AFC007C0061208CB75240E9017761204C8AB82D006AD
:200FF500D0077C0CBC18004005EC24E4500BEC2435F9901450E493FAF70CBC240040E50268
:201015001095EDB53132E532B5222DC2AFC007C0061208CB75240F9017771204C8AB82D072
:2010350006D0077C10EC2435F9901450E493FAF70CBC240040EF8048EDB533028003021247
:201055004EE534B52202800302124EC2AFC007C0061208CB7524109017781204C8AB82D0D0
:2010750006D0077C0CBC10004005EC24EC500BEC2435F9901450E493FDF70CBC240040E5E0
:20109500901771C007C006C0031204C8120540AD82D003D006D0072082FDEE4F60561EBE81
:2010B500FF011FED6003C2A51D20821B852482C007C006C005C003120132120744D003D0E6
:2010D50005D006D00780E2C007C006C005C003120744D003D005D006D0073082BDD2A5C07A
:2010F50007C006C005C003120850D003D005D006D00780E6740DB52416C003120469D003DC
:201115007406B5240A90177A1204C8AB828003752412C2A59001F4C003120075D003D2A583
:201135008B82120540AB82EB60701B7D3B8D82C005C003120552E582D003F5228B82C0035A
:20115500120552E582F5231208CBD003D0057C0CEC2435F9901450E493FAF70CBC240040B7
:20117500EF30820DC005C003120850D003D00580F0208213852482C005C0031201321207DC
:2011950044D003D00580EAC005C003120744D003D0051DBD3C004095808DC2A59003201233
:2011B5000075D2A5900320120075C2A5900320120075D2A5900320120075C2A5900BB812D6
:2011D5000075D2A59017791204C8120540E58275F03CA4FEAFF07C00EC2435F990143AE4F4
:2011F50093FDF70CBC040040EF7C04EC2435F9901445E493FDF70CBC0C0040EF7C0CEC24AB
:2012150035F9901450E493FDF70CBC240040EFC007C006120744D006D007EE4F6018208223
:20123500FD3082FD1EBEFF011FC007C006120881D006D00780E4120568D2AF22C28C755E76
:201255000032C0E0C0D0C28CC2AF055E7402B55E1274F6258C5006E58C24F45003755E003A
:20127500755D00E55E24FD502874F6255E4022E58C24FA500874F8258C4002055D74FC251F
:201295008C5006E58C24F85003755E00E55D23F55DE55E24F65026755E007408B55D028037
:2012B500057448B55D02C2A27406B55D02C2A17488B55D02800574C8B55D02C2A3758C00A4
:2012D500758A00D28CD2AFD0D0D0E032C2011208CB120744120EC2758800D28C758929D25E
:2012F500BAD28AD2AAD2A9D2AF12009B7582D01200C175820E1200C17582001200C1120050
:20131500AF900028120075120469120568120469120EEDE523700DE52270099001F41200A4
:20133500751205687F0020820CC007120744120CBED00780F1C0071208CBD007C3E5599516
:201355005A5027E523FE7008C3E5599E4002C201C3EE95594007E55A9E4002D201C3EE9567
:201375005A4007EE24DC4002C201C3E55A95595027E523FE7008C3E55A9E4002D201C3EE79
:20139500955A4007E5599E4002C201C3EE95594007EE24DC4002D201E55AB55902D201A274
:2013B50001929520014690143AE493FE8E3590143AE493FE8E3690143AE493FE8E379014A0
:2013D5003AE493FE8E387F04EF2435F9901445E493FEF70FBF0C0040EF7F0CEF2435F99005
:2013F5001450E493FEF70FBF240040EFBF0500500A852482C007120132D00730820CC00736
:17141500120744120CBED00780F10FBF0A00500302133B021322226B
:20143000C0F9A4B0999282F88090FFC0F9A4B0999282F88090FFC0F9A4B0999282F8809058
:01145000FF9C
:06004800E478FFF6D8FD8C
:200026007900E94400601B7A00901451780175A000E493F2A308B8000205A0D9F4DAF2751B
:02004600A0FF19
:20004E007800E84400600A790175A000E4F309D8FC7800E84400600C7900900001E4F0A3B0
:04006E00D8FCD9FAE7
:0D00190075816812142CE582600302001648
:04142C0075820022A3
:00000001FF
